{"abi":[{"type":"constructor","inputs":[],"stateMutability":"nonpayable"},{"type":"function","name":"MINT_FEE","inputs":[],"outputs":[{"name":"","type":"uint256","internalType":"uint256"}],"stateMutability":"view"},{"type":"function","name":"TOKEN_ID","inputs":[],"outputs":[{"name":"","type":"uint256","internalType":"uint256"}],"stateMutability":"view"},{"type":"function","name":"balanceOf","inputs":[{"name":"account","type":"address","internalType":"address"},{"name":"id","type":"uint256","internalType":"uint256"}],"outputs":[{"name":"","type":"uint256","internalType":"uint256"}],"stateMutability":"view"},{"type":"function","name":"balanceOfBatch","inputs":[{"name":"accounts","type":"address[]","internalType":"address[]"},{"name":"ids","type":"uint256[]","internalType":"uint256[]"}],"outputs":[{"name":"","type":"uint256[]","internalType":"uint256[]"}],"stateMutability":"view"},{"type":"function","name":"isApprovedForAll","inputs":[{"name":"account","type":"address","internalType":"address"},{"name":"operator","type":"address","internalType":"address"}],"outputs":[{"name":"","type":"bool","internalType":"bool"}],"stateMutability":"view"},{"type":"function","name":"owner","inputs":[],"outputs":[{"name":"","type":"address","internalType":"address"}],"stateMutability":"view"},{"type":"function","name":"renounceOwnership","inputs":[],"outputs":[],"stateMutability":"nonpayable"},{"type":"function","name":"safeBatchTransferFrom","inputs":[{"name":"from","type":"address","internalType":"address"},{"name":"to","type":"address","internalType":"address"},{"name":"ids","type":"uint256[]","internalType":"uint256[]"},{"name":"values","type":"uint256[]","internalType":"uint256[]"},{"name":"data","type":"bytes","internalType":"bytes"}],"outputs":[],"stateMutability":"nonpayable"},{"type":"function","name":"safeTransferFrom","inputs":[{"name":"from","type":"address","internalType":"address"},{"name":"to","type":"address","internalType":"address"},{"name":"id","type":"uint256","internalType":"uint256"},{"name":"value","type":"uint256","internalType":"uint256"},{"name":"data","type":"bytes","internalType":"bytes"}],"outputs":[],"stateMutability":"nonpayable"},{"type":"function","name":"setApprovalForAll","inputs":[{"name":"operator","type":"address","internalType":"address"},{"name":"approved","type":"bool","internalType":"bool"}],"outputs":[],"stateMutability":"nonpayable"},{"type":"function","name":"spinAndMint","inputs":[],"outputs":[],"stateMutability":"payable"},{"type":"function","name":"supportsInterface","inputs":[{"name":"interfaceId","type":"bytes4","internalType":"bytes4"}],"outputs":[{"name":"","type":"bool","internalType":"bool"}],"stateMutability":"view"},{"type":"function","name":"transferOwnership","inputs":[{"name":"newOwner","type":"address","internalType":"address"}],"outputs":[],"stateMutability":"nonpayable"},{"type":"function","name":"uri","inputs":[{"name":"","type":"uint256","internalType":"uint256"}],"outputs":[{"name":"","type":"string","internalType":"string"}],"stateMutability":"view"},{"type":"function","name":"withdraw","inputs":[],"outputs":[],"stateMutability":"nonpayable"},{"type":"event","name":"ApprovalForAll","inputs":[{"name":"account","type":"address","indexed":true,"internalType":"address"},{"name":"operator","type":"address","indexed":true,"internalType":"address"},{"name":"approved","type":"bool","indexed":false,"internalType":"bool"}],"anonymous":false},{"type":"event","name":"GolemSpin","inputs":[{"name":"player","type":"address","indexed":true,"internalType":"address"},{"name":"quantityMinted","type":"uint256","indexed":false,"internalType":"uint256"}],"anonymous":false},{"type":"event","name":"OwnershipTransferred","inputs":[{"name":"previousOwner","type":"address","indexed":true,"internalType":"address"},{"name":"newOwner","type":"address","indexed":true,"internalType":"address"}],"anonymous":false},{"type":"event","name":"TransferBatch","inputs":[{"name":"operator","type":"address","indexed":true,"internalType":"address"},{"name":"from","type":"address","indexed":true,"internalType":"address"},{"name":"to","type":"address","indexed":true,"internalType":"address"},{"name":"ids","type":"uint256[]","indexed":false,"internalType":"uint256[]"},{"name":"values","type":"uint256[]","indexed":false,"internalType":"uint256[]"}],"anonymous":false},{"type":"event","name":"TransferSingle","inputs":[{"name":"operator","type":"address","indexed":true,"internalType":"address"},{"name":"from","type":"address","indexed":true,"internalType":"address"},{"name":"to","type":"address","indexed":true,"internalType":"address"},{"name":"id","type":"uint256","indexed":false,"internalType":"uint256"},{"name":"value","type":"uint256","indexed":false,"internalType":"uint256"}],"anonymous":false},{"type":"event","name":"URI","inputs":[{"name":"value","type":"string","indexed":false,"internalType":"string"},{"name":"id","type":"uint256","indexed":true,"internalType":"uint256"}],"anonymous":false},{"type":"error","name":"ERC1155InsufficientBalance","inputs":[{"name":"sender","type":"address","internalType":"address"},{"name":"balance","type":"uint256","internalType":"uint256"},{"name":"needed","type":"uint256","internalType":"uint256"},{"name":"tokenId","type":"uint256","internalType":"uint256"}]},{"type":"error","name":"ERC1155InvalidApprover","inputs":[{"name":"approver","type":"address","internalType":"address"}]},{"type":"error","name":"ERC1155InvalidArrayLength","inputs":[{"name":"idsLength","type":"uint256","internalType":"uint256"},{"name":"valuesLength","type":"uint256","internalType":"uint256"}]},{"type":"error","name":"ERC1155InvalidOperator","inputs":[{"name":"operator","type":"address","internalType":"address"}]},{"type":"error","name":"ERC1155InvalidReceiver","inputs":[{"name":"receiver","type":"address","internalType":"address"}]},{"type":"error","name":"ERC1155InvalidSender","inputs":[{"name":"sender","type":"address","internalType":"address"}]},{"type":"error","name":"ERC1155MissingApprovalForAll","inputs":[{"name":"operator","type":"address","internalType":"address"},{"name":"owner","type":"address","internalType":"address"}]},{"type":"error","name":"OwnableInvalidOwner","inputs":[{"name":"owner","type":"address","internalType":"address"}]},{"type":"error","name":"OwnableUnauthorizedAccount","inputs":[{"name":"account","type":"address","internalType":"address"}]}],"bytecode":{"object":"0x608060405234801561000f575f5ffd5b50336040518060400160405280601e81526020017f697066733a2f2f594f55525f4d455441444154415f4349445f484552452f0000815250610056816100dc60201b60201c565b505f73ffffffffffffffffffffffffffffffffffffffff168173ffffffffffffffffffffffffffffffffffffffff16036100c7575f6040517f1e4fbdf70000000000000000000000000000000000000000000000000000000081526004016100be91906101f1565b60405180910390fd5b6100d6816100ef60201b60201c565b50610516565b80600290816100eb9190610447565b5050565b5f60035f9054906101000a900473ffffffffffffffffffffffffffffffffffffffff1690508160035f6101000a81548173ffffffffffffffffffffffffffffffffffffffff021916908373ffffffffffffffffffffffffffffffffffffffff1602179055508173ffffffffffffffffffffffffffffffffffffffff168173ffffffffffffffffffffffffffffffffffffffff167f8be0079c531659141344cd1fd0a4f28419497f9722a3daafe3b4186f6b6457e060405160405180910390a35050565b5f73ffffffffffffffffffffffffffffffffffffffff82169050919050565b5f6101db826101b2565b9050919050565b6101eb816101d1565b82525050565b5f6020820190506102045f8301846101e2565b92915050565b5f81519050919050565b7f4e487b71000000000000000000000000000000000000000000000000000000005f52604160045260245ffd5b7f4e487b71000000000000000000000000000000000000000000000000000000005f52602260045260245ffd5b5f600282049050600182168061028557607f821691505b60208210810361029857610297610241565b5b50919050565b5f819050815f5260205f209050919050565b5f6020601f8301049050919050565b5f82821b905092915050565b5f600883026102fa7fffffffffffffffffffffffffffffffffffffffffffffffffffffffffffffffff826102bf565b61030486836102bf565b95508019841693508086168417925050509392505050565b5f819050919050565b5f819050919050565b5f61034861034361033e8461031c565b610325565b61031c565b9050919050565b5f819050919050565b6103618361032e565b61037561036d8261034f565b8484546102cb565b825550505050565b5f5f905090565b61038c61037d565b610397818484610358565b505050565b5b818110156103ba576103af5f82610384565b60018101905061039d565b5050565b601f8211156103ff576103d08161029e565b6103d9846102b0565b810160208510156103e8578190505b6103fc6103f4856102b0565b83018261039c565b50505b505050565b5f82821c905092915050565b5f61041f5f1984600802610404565b1980831691505092915050565b5f6104378383610410565b9150826002028217905092915050565b6104508261020a565b67ffffffffffffffff81111561046957610468610214565b5b610473825461026e565b61047e8282856103be565b5f60209050601f8311600181146104af575f841561049d578287015190505b6104a7858261042c565b86555061050e565b601f1984166104bd8661029e565b5f5b828110156104e4578489015182556001820191506020850194506020810190506104bf565b8683101561050157848901516104fd601f891682610410565b8355505b6001600288020188555050505b505050505050565b612685806105235f395ff3fe6080604052600436106100e6575f3560e01c806389a8900211610089578063d9bc7d6811610058578063d9bc7d68146102d4578063e985e9c5146102de578063f242432a1461031a578063f2fde38b14610342576100e6565b806389a890021461022e5780638da5cb5b14610258578063a22cb46514610282578063d7bf81a3146102aa576100e6565b80632eb2c2d6116100c55780632eb2c2d61461019e5780633ccfd60b146101c65780634e1273f4146101dc578063715018a614610218576100e6565b8062fdd58e146100ea57806301ffc9a7146101265780630e89341c14610162575b5f5ffd5b3480156100f5575f5ffd5b50610110600480360381019061010b9190611919565b61036a565b60405161011d9190611966565b60405180910390f35b348015610131575f5ffd5b5061014c600480360381019061014791906119d4565b6103bf565b6040516101599190611a19565b60405180910390f35b34801561016d575f5ffd5b5061018860048036038101906101839190611a32565b6104a0565b6040516101959190611acd565b60405180910390f35b3480156101a9575f5ffd5b506101c460048036038101906101bf9190611cdd565b610532565b005b3480156101d1575f5ffd5b506101da6105d9565b005b3480156101e7575f5ffd5b5061020260048036038101906101fd9190611e68565b610693565b60405161020f9190611f95565b60405180910390f35b348015610223575f5ffd5b5061022c61079d565b005b348015610239575f5ffd5b506102426107b0565b60405161024f9190611966565b60405180910390f35b348015610263575f5ffd5b5061026c6107b4565b6040516102799190611fc4565b60405180910390f35b34801561028d575f5ffd5b506102a860048036038101906102a39190612007565b6107dc565b005b3480156102b5575f5ffd5b506102be6107f2565b6040516102cb9190611966565b60405180910390f35b6102dc6107fe565b005b3480156102e9575f5ffd5b5061030460048036038101906102ff9190612045565b6108bf565b6040516103119190611a19565b60405180910390f35b348015610325575f5ffd5b50610340600480360381019061033b9190612083565b61094d565b005b34801561034d575f5ffd5b5061036860048036038101906103639190612116565b6109f4565b005b5f5f5f8381526020019081526020015f205f8473ffffffffffffffffffffffffffffffffffffffff1673ffffffffffffffffffffffffffffffffffffffff1681526020019081526020015f2054905092915050565b5f7fd9b67a26000000000000000000000000000000000000000000000000000000007bffffffffffffffffffffffffffffffffffffffffffffffffffffffff1916827bffffffffffffffffffffffffffffffffffffffffffffffffffffffff1916148061048957507f0e89341c000000000000000000000000000000000000000000000000000000007bffffffffffffffffffffffffffffffffffffffffffffffffffffffff1916827bffffffffffffffffffffffffffffffffffffffffffffffffffffffff1916145b80610499575061049882610a78565b5b9050919050565b6060600280546104af9061216e565b80601f01602080910402602001604051908101604052809291908181526020018280546104db9061216e565b80156105265780601f106104fd57610100808354040283529160200191610526565b820191905f5260205f20905b81548152906001019060200180831161050957829003601f168201915b50505050509050919050565b5f61053b610ae1565b90508073ffffffffffffffffffffffffffffffffffffffff168673ffffffffffffffffffffffffffffffffffffffff1614158015610580575061057e86826108bf565b155b156105c45780866040517fe237d9220000000000000000000000000000000000000000000000000000000081526004016105bb92919061219e565b60405180910390fd5b6105d18686868686610ae8565b505050505050565b6105e1610bdc565b5f6105ea6107b4565b73ffffffffffffffffffffffffffffffffffffffff164760405161060d906121f2565b5f6040518083038185875af1925050503d805f8114610647576040519150601f19603f3d011682016040523d82523d5f602084013e61064c565b606091505b5050905080610690576040517f08c379a000000000000000000000000000000000000000000000000000000000815260040161068790612250565b60405180910390fd5b50565b606081518351146106df57815183516040517f5b0599910000000000000000000000000000000000000000000000000000000081526004016106d692919061226e565b60405180910390fd5b5f835167ffffffffffffffff8111156106fb576106fa611af1565b5b6040519080825280602002602001820160405280156107295781602001602082028036833780820191505090505b5090505f5f90505b8451811015610792576107686107508287610c6390919063ffffffff16565b6107638387610c7690919063ffffffff16565b61036a565b82828151811061077b5761077a612295565b5b602002602001018181525050806001019050610731565b508091505092915050565b6107a5610bdc565b6107ae5f610c89565b565b5f81565b5f60035f9054906101000a900473ffffffffffffffffffffffffffffffffffffffff16905090565b6107ee6107e7610ae1565b8383610d4c565b5050565b67016345785d8a000081565b67016345785d8a0000341015610849576040517f08c379a00000000000000000000000000000000000000000000000000000000081526004016108409061230c565b60405180910390fd5b5f610852610eb5565b905061086e335f8360405180602001604052805f815250610f13565b3373ffffffffffffffffffffffffffffffffffffffff167f235884cd5cba5d8d69ffcd14c1b626b475f74870d717379828380b453913ab79826040516108b49190611966565b60405180910390a250565b5f60015f8473ffffffffffffffffffffffffffffffffffffffff1673ffffffffffffffffffffffffffffffffffffffff1681526020019081526020015f205f8373ffffffffffffffffffffffffffffffffffffffff1673ffffffffffffffffffffffffffffffffffffffff1681526020019081526020015f205f9054906101000a900460ff16905092915050565b5f610956610ae1565b90508073ffffffffffffffffffffffffffffffffffffffff168673ffffffffffffffffffffffffffffffffffffffff161415801561099b575061099986826108bf565b155b156109df5780866040517fe237d9220000000000000000000000000000000000000000000000000000000081526004016109d692919061219e565b60405180910390fd5b6109ec8686868686610fa8565b505050505050565b6109fc610bdc565b5f73ffffffffffffffffffffffffffffffffffffffff168173ffffffffffffffffffffffffffffffffffffffff1603610a6c575f6040517f1e4fbdf7000000000000000000000000000000000000000000000000000000008152600401610a639190611fc4565b60405180910390fd5b610a7581610c89565b50565b5f7f01ffc9a7000000000000000000000000000000000000000000000000000000007bffffffffffffffffffffffffffffffffffffffffffffffffffffffff1916827bffffffffffffffffffffffffffffffffffffffffffffffffffffffff1916149050919050565b5f33905090565b5f73ffffffffffffffffffffffffffffffffffffffff168473ffffffffffffffffffffffffffffffffffffffff1603610b58575f6040517f57f447ce000000000000000000000000000000000000000000000000000000008152600401610b4f9190611fc4565b60405180910390fd5b5f73ffffffffffffffffffffffffffffffffffffffff168573ffffffffffffffffffffffffffffffffffffffff1603610bc8575f6040517f01a83514000000000000000000000000000000000000000000000000000000008152600401610bbf9190611fc4565b60405180910390fd5b610bd585858585856110ae565b5050505050565b610be4610ae1565b73ffffffffffffffffffffffffffffffffffffffff16610c026107b4565b73ffffffffffffffffffffffffffffffffffffffff1614610c6157610c25610ae1565b6040517f118cdaa7000000000000000000000000000000000000000000000000000000008152600401610c589190611fc4565b60405180910390fd5b565b5f60208202602084010151905092915050565b5f60208202602084010151905092915050565b5f60035f9054906101000a900473ffffffffffffffffffffffffffffffffffffffff1690508160035f6101000a81548173ffffffffffffffffffffffffffffffffffffffff021916908373ffffffffffffffffffffffffffffffffffffffff1602179055508173ffffffffffffffffffffffffffffffffffffffff168173ffffffffffffffffffffffffffffffffffffffff167f8be0079c531659141344cd1fd0a4f28419497f9722a3daafe3b4186f6b6457e060405160405180910390a35050565b5f73ffffffffffffffffffffffffffffffffffffffff168273ffffffffffffffffffffffffffffffffffffffff1603610dbc575f6040517fced3e100000000000000000000000000000000000000000000000000000000008152600401610db39190611fc4565b60405180910390fd5b8060015f8573ffffffffffffffffffffffffffffffffffffffff1673ffffffffffffffffffffffffffffffffffffffff1681526020019081526020015f205f8473ffffffffffffffffffffffffffffffffffffffff1673ffffffffffffffffffffffffffffffffffffffff1681526020019081526020015f205f6101000a81548160ff0219169083151502179055508173ffffffffffffffffffffffffffffffffffffffff168373ffffffffffffffffffffffffffffffffffffffff167f17307eab39ab6107e8899845ad3d59bd9653f200f220920489ca2b5937696c3183604051610ea89190611a19565b60405180910390a3505050565b5f5f4233600454604051602001610ece9392919061238f565b604051602081830303815290604052805190602001205f1c90505f6001600383610ef891906123f8565b610f029190612455565b905080600481905550809250505090565b5f73ffffffffffffffffffffffffffffffffffffffff168473ffffffffffffffffffffffffffffffffffffffff1603610f83575f6040517f57f447ce000000000000000000000000000000000000000000000000000000008152600401610f7a9190611fc4565b60405180910390fd5b5f5f610f8f858561115a565b91509150610fa05f878484876110ae565b505050505050565b5f73ffffffffffffffffffffffffffffffffffffffff168473ffffffffffffffffffffffffffffffffffffffff1603611018575f6040517f57f447ce00000000000000000000000000000000000000000000000000000000815260040161100f9190611fc4565b60405180910390fd5b5f73ffffffffffffffffffffffffffffffffffffffff168573ffffffffffffffffffffffffffffffffffffffff1603611088575f6040517f01a8351400000000000000000000000000000000000000000000000000000000815260040161107f9190611fc4565b60405180910390fd5b5f5f611094858561115a565b915091506110a587878484876110ae565b50505050505050565b6110ba8585858561118a565b5f73ffffffffffffffffffffffffffffffffffffffff168473ffffffffffffffffffffffffffffffffffffffff1614611153575f6110f6610ae1565b90506001845103611142575f6111155f86610c7690919063ffffffff16565b90505f61112b5f86610c7690919063ffffffff16565b905061113b83898985858961151d565b5050611151565b6111508187878787876116cc565b5b505b5050505050565b60608060405191506001825283602083015260408201905060018152826020820152604081016040529250929050565b80518251146111d457815181516040517f5b0599910000000000000000000000000000000000000000000000000000000081526004016111cb92919061226e565b60405180910390fd5b5f6111dd610ae1565b90505f5f90505b83518110156113dc575f6112018286610c7690919063ffffffff16565b90505f6112178386610c7690919063ffffffff16565b90505f73ffffffffffffffffffffffffffffffffffffffff168873ffffffffffffffffffffffffffffffffffffffff161461133a575f5f5f8481526020019081526020015f205f8a73ffffffffffffffffffffffffffffffffffffffff1673ffffffffffffffffffffffffffffffffffffffff1681526020019081526020015f20549050818110156112e657888183856040517f03dee4c50000000000000000000000000000000000000000000000000000000081526004016112dd9493929190612488565b60405180910390fd5b8181035f5f8581526020019081526020015f205f8b73ffffffffffffffffffffffffffffffffffffffff1673ffffffffffffffffffffffffffffffffffffffff1681526020019081526020015f2081905550505b5f73ffffffffffffffffffffffffffffffffffffffff168773ffffffffffffffffffffffffffffffffffffffff16146113cf57805f5f8481526020019081526020015f205f8973ffffffffffffffffffffffffffffffffffffffff1673ffffffffffffffffffffffffffffffffffffffff1681526020019081526020015f205f8282546113c79190612455565b925050819055505b50508060010190506111e4565b506001835103611497575f6113fa5f85610c7690919063ffffffff16565b90505f6114105f85610c7690919063ffffffff16565b90508573ffffffffffffffffffffffffffffffffffffffff168773ffffffffffffffffffffffffffffffffffffffff168473ffffffffffffffffffffffffffffffffffffffff167fc3d58168c5ae7397731d063d5bbf3d657854427343f4c083240f7aacaa2d0f62858560405161148892919061226e565b60405180910390a45050611516565b8373ffffffffffffffffffffffffffffffffffffffff168573ffffffffffffffffffffffffffffffffffffffff168273ffffffffffffffffffffffffffffffffffffffff167f4a39dc06d4c0dbc64b70af90fd698a233a518aa5d07e595d983b8c0526c8f7fb868660405161150d9291906124cb565b60405180910390a45b5050505050565b5f8473ffffffffffffffffffffffffffffffffffffffff163b11156116c4578373ffffffffffffffffffffffffffffffffffffffff1663f23a6e6187878686866040518663ffffffff1660e01b815260040161157d959493929190612552565b6020604051808303815f875af19250505080156115b857506040513d601f19601f820116820180604052508101906115b591906125be565b60015b611639573d805f81146115e6576040519150601f19603f3d011682016040523d82523d5f602084013e6115eb565b606091505b505f81510361163157846040517f57f447ce0000000000000000000000000000000000000000000000000000000081526004016116289190611fc4565b60405180910390fd5b805181602001fd5b63f23a6e6160e01b7bffffffffffffffffffffffffffffffffffffffffffffffffffffffff1916817bffffffffffffffffffffffffffffffffffffffffffffffffffffffff1916146116c257846040517f57f447ce0000000000000000000000000000000000000000000000000000000081526004016116b99190611fc4565b60405180910390fd5b505b505050505050565b5f8473ffffffffffffffffffffffffffffffffffffffff163b1115611873578373ffffffffffffffffffffffffffffffffffffffff1663bc197c8187878686866040518663ffffffff1660e01b815260040161172c9594939291906125e9565b6020604051808303815f875af192505050801561176757506040513d601f19601f8201168201806040525081019061176491906125be565b60015b6117e8573d805f8114611795576040519150601f19603f3d011682016040523d82523d5f602084013e61179a565b606091505b505f8151036117e057846040517f57f447ce0000000000000000000000000000000000000000000000000000000081526004016117d79190611fc4565b60405180910390fd5b805181602001fd5b63bc197c8160e01b7bffffffffffffffffffffffffffffffffffffffffffffffffffffffff1916817bffffffffffffffffffffffffffffffffffffffffffffffffffffffff19161461187157846040517f57f447ce0000000000000000000000000000000000000000000000000000000081526004016118689190611fc4565b60405180910390fd5b505b505050505050565b5f604051905090565b5f5ffd5b5f5ffd5b5f73ffffffffffffffffffffffffffffffffffffffff82169050919050565b5f6118b58261188c565b9050919050565b6118c5816118ab565b81146118cf575f5ffd5b50565b5f813590506118e0816118bc565b92915050565b5f819050919050565b6118f8816118e6565b8114611902575f5ffd5b50565b5f81359050611913816118ef565b92915050565b5f5f6040838503121561192f5761192e611884565b5b5f61193c858286016118d2565b925050602061194d85828601611905565b9150509250929050565b611960816118e6565b82525050565b5f6020820190506119795f830184611957565b92915050565b5f7fffffffff0000000000000000000000000000000000000000000000000000000082169050919050565b6119b38161197f565b81146119bd575f5ffd5b50565b5f813590506119ce816119aa565b92915050565b5f602082840312156119e9576119e8611884565b5b5f6119f6848285016119c0565b91505092915050565b5f8115159050919050565b611a13816119ff565b82525050565b5f602082019050611a2c5f830184611a0a565b92915050565b5f60208284031215611a4757611a46611884565b5b5f611a5484828501611905565b91505092915050565b5f81519050919050565b5f82825260208201905092915050565b8281835e5f83830152505050565b5f601f19601f8301169050919050565b5f611a9f82611a5d565b611aa98185611a67565b9350611ab9818560208601611a77565b611ac281611a85565b840191505092915050565b5f6020820190508181035f830152611ae58184611a95565b905092915050565b5f5ffd5b7f4e487b71000000000000000000000000000000000000000000000000000000005f52604160045260245ffd5b611b2782611a85565b810181811067ffffffffffffffff82111715611b4657611b45611af1565b5b80604052505050565b5f611b5861187b565b9050611b648282611b1e565b919050565b5f67ffffffffffffffff821115611b8357611b82611af1565b5b602082029050602081019050919050565b5f5ffd5b5f611baa611ba584611b69565b611b4f565b90508083825260208201905060208402830185811115611bcd57611bcc611b94565b5b835b81811015611bf65780611be28882611905565b845260208401935050602081019050611bcf565b5050509392505050565b5f82601f830112611c1457611c13611aed565b5b8135611c24848260208601611b98565b91505092915050565b5f5ffd5b5f67ffffffffffffffff821115611c4b57611c4a611af1565b5b611c5482611a85565b9050602081019050919050565b828183375f83830152505050565b5f611c81611c7c84611c31565b611b4f565b905082815260208101848484011115611c9d57611c9c611c2d565b5b611ca8848285611c61565b509392505050565b5f82601f830112611cc457611cc3611aed565b5b8135611cd4848260208601611c6f565b91505092915050565b5f5f5f5f5f60a08688031215611cf657611cf5611884565b5b5f611d03888289016118d2565b9550506020611d14888289016118d2565b945050604086013567ffffffffffffffff811115611d3557611d34611888565b5b611d4188828901611c00565b935050606086013567ffffffffffffffff811115611d6257611d61611888565b5b611d6e88828901611c00565b925050608086013567ffffffffffffffff811115611d8f57611d8e611888565b5b611d9b88828901611cb0565b9150509295509295909350565b5f67ffffffffffffffff821115611dc257611dc1611af1565b5b602082029050602081019050919050565b5f611de5611de084611da8565b611b4f565b90508083825260208201905060208402830185811115611e0857611e07611b94565b5b835b81811015611e315780611e1d88826118d2565b845260208401935050602081019050611e0a565b5050509392505050565b5f82601f830112611e4f57611e4e611aed565b5b8135611e5f848260208601611dd3565b91505092915050565b5f5f60408385031215611e7e57611e7d611884565b5b5f83013567ffffffffffffffff811115611e9b57611e9a611888565b5b611ea785828601611e3b565b925050602083013567ffffffffffffffff811115611ec857611ec7611888565b5b611ed485828601611c00565b9150509250929050565b5f81519050919050565b5f82825260208201905092915050565b5f819050602082019050919050565b611f10816118e6565b82525050565b5f611f218383611f07565b60208301905092915050565b5f602082019050919050565b5f611f4382611ede565b611f4d8185611ee8565b9350611f5883611ef8565b805f5b83811015611f88578151611f6f8882611f16565b9750611f7a83611f2d565b925050600181019050611f5b565b5085935050505092915050565b5f6020820190508181035f830152611fad8184611f39565b905092915050565b611fbe816118ab565b82525050565b5f602082019050611fd75f830184611fb5565b92915050565b611fe6816119ff565b8114611ff0575f5ffd5b50565b5f8135905061200181611fdd565b92915050565b5f5f6040838503121561201d5761201c611884565b5b5f61202a858286016118d2565b925050602061203b85828601611ff3565b9150509250929050565b5f5f6040838503121561205b5761205a611884565b5b5f612068858286016118d2565b9250506020612079858286016118d2565b9150509250929050565b5f5f5f5f5f60a0868803121561209c5761209b611884565b5b5f6120a9888289016118d2565b95505060206120ba888289016118d2565b94505060406120cb88828901611905565b93505060606120dc88828901611905565b925050608086013567ffffffffffffffff8111156120fd576120fc611888565b5b61210988828901611cb0565b9150509295509295909350565b5f6020828403121561212b5761212a611884565b5b5f612138848285016118d2565b91505092915050565b7f4e487b71000000000000000000000000000000000000000000000000000000005f52602260045260245ffd5b5f600282049050600182168061218557607f821691505b60208210810361219857612197612141565b5b50919050565b5f6040820190506121b15f830185611fb5565b6121be6020830184611fb5565b9392505050565b5f81905092915050565b50565b5f6121dd5f836121c5565b91506121e8826121cf565b5f82019050919050565b5f6121fc826121d2565b9150819050919050565b7f486f646c476f6c656d3a205769746864726177206661696c65640000000000005f82015250565b5f61223a601a83611a67565b915061224582612206565b602082019050919050565b5f6020820190508181035f8301526122678161222e565b9050919050565b5f6040820190506122815f830185611957565b61228e6020830184611957565b9392505050565b7f4e487b71000000000000000000000000000000000000000000000000000000005f52603260045260245ffd5b7f486f646c476f6c656d3a20496e73756666696369656e74206665652073656e745f82015250565b5f6122f6602083611a67565b9150612301826122c2565b602082019050919050565b5f6020820190508181035f830152612323816122ea565b9050919050565b5f819050919050565b61234461233f826118e6565b61232a565b82525050565b5f8160601b9050919050565b5f6123608261234a565b9050919050565b5f61237182612356565b9050919050565b612389612384826118ab565b612367565b82525050565b5f61239a8286612333565b6020820191506123aa8285612378565b6014820191506123ba8284612333565b602082019150819050949350505050565b7f4e487b71000000000000000000000000000000000000000000000000000000005f52601260045260245ffd5b5f612402826118e6565b915061240d836118e6565b92508261241d5761241c6123cb565b5b828206905092915050565b7f4e487b71000000000000000000000000000000000000000000000000000000005f52601160045260245ffd5b5f61245f826118e6565b915061246a836118e6565b925082820190508082111561248257612481612428565b5b92915050565b5f60808201905061249b5f830187611fb5565b6124a86020830186611957565b6124b56040830185611957565b6124c26060830184611957565b95945050505050565b5f6040820190508181035f8301526124e38185611f39565b905081810360208301526124f78184611f39565b90509392505050565b5f81519050919050565b5f82825260208201905092915050565b5f61252482612500565b61252e818561250a565b935061253e818560208601611a77565b61254781611a85565b840191505092915050565b5f60a0820190506125655f830188611fb5565b6125726020830187611fb5565b61257f6040830186611957565b61258c6060830185611957565b818103608083015261259e818461251a565b90509695505050505050565b5f815190506125b8816119aa565b92915050565b5f602082840312156125d3576125d2611884565b5b5f6125e0848285016125aa565b91505092915050565b5f60a0820190506125fc5f830188611fb5565b6126096020830187611fb5565b818103604083015261261b8186611f39565b9050818103606083015261262f8185611f39565b90508181036080830152612643818461251a565b9050969550505050505056fea26469706673582212205bb8107ac96fd04c965441966e09df4ebd2d6026e150989957a49c6bb947647664736f6c634300081c0033","linkReferences":{}},"methodIdentifiers":{"MINT_FEE()":"d7bf81a3","TOKEN_ID()":"89a89002","balanceOf(address,uint256)":"00fdd58e","balanceOfBatch(address[],uint256[])":"4e1273f4","isApprovedForAll(address,address)":"e985e9c5","owner()":"8da5cb5b","renounceOwnership()":"715018a6","safeBatchTransferFrom(address,address,uint256[],uint256[],bytes)":"2eb2c2d6","safeTransferFrom(address,address,uint256,uint256,bytes)":"f242432a","setApprovalForAll(address,bool)":"a22cb465","spinAndMint()":"d9bc7d68","supportsInterface(bytes4)":"01ffc9a7","transferOwnership(address)":"f2fde38b","uri(uint256)":"0e89341c","withdraw()":"3ccfd60b"},"id":37}